:020000040800F2
:100000000005002051130008E5100008E710000863
:1000100000000000000000000000000000000000E0
:10002000000000000000000000000000E9100008CF
:100030000000000000000000EB100008ED100008B8
:10004000C70800087F0E0008A70F00089F100008CF
:100050002F1300083B1300086D1300086F130008EE
:1000600071130008731300083F110008751300088E
:1000700077130008791300087B130008F5100008B7
:100080007D1300087F1300080000000081130008A2
:1000900083130008851300088713000889130008DC
:1000A0008B1300088D1300088F13000891130008AC
:1000B00093130008000000009513000800000000E2
:1000C00038B500F013F9002000F064FB002000F0C8
:1000D0007DFB83480068FA21890000F09DFB8021A8
:1000E0004904884231D27F497F4A1040401E48600F
:1000F000954803681A40C0231B061343036000247D
:100100008C600720086000F021F800F0B2F800F0E1
:1001100016FC00F0D9FB8D480168802212010A43C9
:1001200002609F4D012000F059FB322000F0C6F81C
:10013000002000F053FB2878002802D02C7000F03B
:1001400081FC322000F0BAF8ECE7FEE770B594B01D
:10015000944C200000F020FD650D0121280000F0E6
:100160001CFE0121012000F00EFE0121480400F0D8
:100170000AFE8D4801680D4305600126C1693143BF
:10018000C1618A49C269920702D4491EFAD16EE060
:100190004E2000906846032101710025C571694613
:1001A0009020C00500F036FE200000F044FD0DA8B0
:1001B00000F013FD0D950DA806710F951195129580
:1001C0000DA9200000F0F7FC05220221200000F01C
:1001D0002DFD05220421200000F028FD0522082124
:1001E000200000F023FD05224021200000F01EFD2C
:1001F00005223104200000F019FD012000F00AFD65
:10020000012000F0FBFC964E300000F039FE9548CE
:10021000029095480390049505200590069580204E
:100220000790803008908000099020200A900002FA
:100230000B900C9502A9300000F04FFE0121300018
:1002400000F066FE0221200000F019FD01212000CF
:1002500000F00AFD0121200000F0C7FCAF4920009A
:1002600000F015FD0028F9D0200000F0F8FC14B0D3
:1002700070BD00B585B00121480400F084FD102058
:1002800000900320694608719020C00500F0C2FD6F
:100290000121480700F08BFD00200290022003900E
:1002A00002A9002000F046FE0121002000F04FFED0
:1002B0000121002000F057FE05B000BD01B49848B0
:1002C0000099016001680029FCD101B07047944891
:1002D0000168002902D00168491E016070470000D2
:1002E000C000002010E000E0FFFFFF0000B583B079
:1002F0000121BC20C00300F046FD8A4800906846FA
:10030000012101710021C1800321417169469020C2
:10031000C00500F07FFDB24800906946B14800F08A
:1003200079FDB74800906946B64800F073FD042097
:1003300000906946B44800F06DFDF02000906946D9
:10034000B24800F067FD07BD20ED00E0180400484A
:10035000F0B5010000220023012401259D400D403D
:1003600001209840854209D1A948950040598569E6
:10037000C44E5700F65B354385610CE00800D84059
:10038000204008D1A24895004059058DBD4E570028
:10039000F65B2E430685521C5B1C1C2BDDDBF0BD7F
:1003A000FA0000200024014018100240E903000078
:1003B000F1B581B00E200021019C03268E4026401D
:1003C000440001258D40AE4219D1AF4D2D5B009503
:1003D0008F4D8600AD592F68BC46009F0326BE4056
:1003E0006746B7432F602E68B446009E0127B7408A
:1003F000664637432F60A34E345BAC612AE0002E83
:100400001AD1A14D2D5B0095814D8600AD592F6805
:10041000BC46009F0326BE406746B7432F602E6848
:10042000B446009E0127B740664637432F6000BFA1
:10043000B9A6345B2C850DE002258D40AE4209D172
:10044000734D8600AD592E688F4F3F5B0324BC402F
:10045000A6432E60401C891C1C29ADDBF3BD0000A7
:100460000800024040240140C4000020F1B581B0E2
:1004700000200021019C03268E40264044000125D7
:100480008D40AE421AD100BF80A52D5B00959B4DDB
:100490008600AD592F68BC46009F0326BE406746C4
:1004A000B7432F602E68B446009E0127B7406646CA
:1004B00037432F60B4A6345BAC6129E0002E19D11C
:1004C00072A52D5B00958D4D8600AD592F68BC46F9
:1004D000009F0326BE406746B7432F602E68B44690
:1004E000009E0127B740664637432F60A6A6345BBF
:1004F0002C850DE002258D40AE4209D17F4D86004E
:10050000AD592E6861A73F5B0324BC40A6432E6013
:10051000401C891C0C29ADDBF3BD0000010000016B
:10052000D0000020A1980000F0B50020744909888F
:10053000C90500D501200221724C2288120500D580
:1005400008432288D20402D50200042010430A0383
:100550002388134202D003000820184323885B0439
:1005600002D50300102018438B0324881C4202D0BC
:100570000400202020434025634C27882F4202D0CE
:10058000060040203043802527882F4202D00600F5
:10059000802030432588ED0502D50500C801284399
:1005A0002588154202D005000802284325886D04DD
:1005B00002D505004802284324881C4202D00300CB
:1005C00088021843514B1C88E40702D50400C80276
:1005D00020431B880B4202D0010010000843F0BDED
:1005E000FFEF00000004004810B5494C2000FFF761
:1005F000AFFE200CFFF73AFF2000FFF7D9FE10BD39
:10060000CF1C000000080048000C004800140048FF
:1006100000000020F8B500210025002240E0000085
:10062000F8B500210025002203209040854300BF3B
:1006300016A04E00805B01900326864000962F484E
:100640008E0086593068009F0740BC46019F0120FC
:10065000B840844508D1B08A4BA64F00F65B3042C3
:100660000AD02800012505E03068009E064003D12D
:100670002800022595400543491C921C0C2AD3DB17
:100680002800E6BD180700085007000808000A0007
:100690000000020004001400F8B50E21002200251D
:1006A00003209040854300BF29A04E00805B01904D
:1006B00003268640009617488E0086593068009FB2
:1006C0000740BC46019F0120B840844508D1B08A4C
:1006D00011A64F00F65B30420AD02800012505E044
:1006E0003068009E064003D128000225954005434E
:1006F000491C921C1C2AD3DB2800E6BD7000002098
:100700001000004810040048100800481014004869
:10071000AAAAAA0A000000200002000180004000EE
:100720002000100008000010000800040080800075
:1007300040000010002000400080400080000004C5
:1007400000080000000000000000000000000000A1
:10075000120010000E000C000A000800060018002D
:10076000160014001E000E000C0018001A001C00D9
:100770001E000C000E001400160000000000000017
:100780000000000000000000100020000100020036
:100790000400000430B583B00500AC00012100BFA7
:1007A00017A0005900F0EFFA12A06900405A00901B
:1007B0006846012101710021C18003214171694610
:1007C0000B48005900F026FB37BD000009A142008C
:1007D000895A074A80001058816170470449820095
:1007E00089588A8A03A34000185A5040888270476B
:1007F0008800002000020001008000020008800044
:1008000000000800000008000000040000000800CC
:1008100000000200000040000022030A8B420BD2BD
:1008200003098B4219D243088B422ED2411A00D2BF
:100830000146524110467047FF2209023FD012067E
:100840008B4205D3121209028B4201D31212090204
:1008500003098B4219D300E0090AC3098B4201D373
:10086000CB01C01A524183098B4201D38B01C01ABC
:10087000524143098B4201D34B01C01A5241030933
:100880008B4201D30B01C01A5241C3088B4201D3E2
:10089000CB00C01A524183088B4201D38B00C01A8F
:1008A000524143088B4201D34B00C01A5241884247
:1008B00000D3401A5241CFD201461046704708B5C6
:1008C00000F070FB08BDFEE79F4841688022D2011E
:1008D0000A4342609021C9050A689C4B1340A0223C
:1008E00092031A430A604A6A994B134088225200C5
:1008F0001A434A620168802212030A430260954843
:100900000168890089088022D2050A430260816853
:10091000C02212060A4382608F48D021490081819B
:10092000C02181600D2101604021C2690A40FCD0D4
:10093000026A0A43026202681143016070478248FA
:10094000016801220A430260844885498160854923
:10095000C1600268922313430360834AC261143169
:10096000016208218161416983220A4342617F4813
:1009700001687F4A0A408021C90311430160802039
:10098000C0007C490860704704B4764A4B2313705A
:10099000507004209070D1706846121D016811607B
:1009A00075480188802212020A4302806B48016860
:1009B0000122914301600821416001680A430260FD
:1009C00001B0704770B506000D00664C0021200094
:1009D00000F002FB4B20207066700420A070E570D0
:1009E00061202071012060710021E1805B490A686B
:1009F00001239A430A6008224A600A68104308608B
:100A00005D480188DA030A43028070BD80B55B4807
:100A100000F036FA514800F033FA594800F030FA45
:100A20008020C00500F0DAFA4B4800F039FB554849
:100A300000F0B2F8BFF34F8F534854490860BFF33A
:100A40004F8FFEE738B5474C207D4B2800D071E032
:100A5000207F617D814258D100216177217E627EB5
:100A600012020A43A17E09041143E27E15060D43DA
:100A70004749E27D521E122A64D801A39B5C9F4421
:100A8000121A2A4A3A545E6C7682ACC2C2C28A906A
:100A9000969CA2003F490A68012145E02800FFF723
:100AA00057FCFFF7B7FD0200022129E02800FFF7FD
:100AB000DDFCFFF7B5FD0200032121E02800FFF770
:100AC00077FCFFF7E9FD0200052119E0FFF72CFD97
:100AD0000200042114E0FFF79DFD020006210FE053
:100AE000A9B2002000F04CFA2A00072108E0FFF725
:100AF000D3FD0200082103E0FFF776FD0022092163
:100B0000207F11E00A21FFF75DFF31BD0A880F2128
:100B10000AE04A88102107E08A88112104E0CA8887
:100B2000122101E00A891321FFF72EFF31BDFFF7E3
:100B30006DFF31BD607F032801DBFFF767FF607F3A
:100B4000401C607731BD000014100240FFFFC3FF5E
:100B50000FF0FFFF00080048003801401C00024071
:100B600028380140DC0000202438014008E400E07F
:100B7000FFFF00FF00E100E01408004830000240E1
:100B800008000240002401400400FA050CED00E0DA
:100B9000C4000020D80000204449884200D070479B
:100BA00010B54C0D0121200000F00BF900212000B0
:100BB00000F007F910BDC2683D4B13400A681A43A4
:100BC0000B795B0313438A681A43CB6813430A69A2
:100BD0001A4349691143C1607047002101600171E6
:100BE0008160C1600161416170470029816801D065
:100BF000012200E002220A43826070472F49002848
:100C0000086803D080221204024301E0294A02400E
:100C10000A60704729490028086803D08022D2035F
:100C2000024301E0244A02400A607047836A194384
:100C300081624261704710B50100002080221206D7
:100C40008B6813438B60F0231B028C685B1E01D002
:100C50001440FAD18B681A4000D1086C10BD81682D
:100C600004220A43826070470029C16803D0012230
:100C70000A43C260704701229143C1607047C26855
:100C800002239A43C260C2681143C16070470200E8
:100C90000020CB0103D59368094A1A4000E012688E
:100CA000114000D0012070470000000000240140E6
:100CB00003D2FFFFFFFF7FFFFFFFBFFF08270140B9
:100CC000FFFFFFFEF0B50400484D2868484E0C2198
:100CD0000140082913D1286829688002070FBF1C2A
:100CE000C80303D470084743380009E0A96A3000FC
:100CF0000907090F491CFFF78FFD784300E030001A
:100D000020602A683B4821681206120F825CD1409D
:100D100061602A685205520F805CC140A160E86A98
:100D2000C00501D4344805E02868400401D44808CF
:100D300000E08808E06080200002E96A490601D4EA
:100D40002E4900E001002161E96AC90601D43100A1
:100D500000E0216861610321EA6A0A4001D1A068CC
:100D600009E0EA6A0A40012A01D1206803E0EA6A40
:100D70000A40022A01D1A061F0BDE86A01400329BE
:100D800000D1A661F0BD1E4A0029116802D00843B7
:100D9000106070478143116070471A4A002911683A
:100DA00002D0084310607047814311607047164AB3
:100DB0000029116802D00843106070478143116018
:100DC0007047124A0029116802D00843106070472A
:100DD0008143116070470E4A0029116802D0084310
:100DE000106070478143116070470000041002409A
:100DF00000127A00A0000020809FD5001280000021
:100E000014100240181002401C1002400C10024046
:100E100010100240F0B5002301229A400C681440E3
:100E2000944228D15C000326A640F5430E79012E9A
:100E300001D0022E0FD186682E40866086684F79D9
:100E4000A7403743876086889643868082888E795C
:100E50009E401643868002682A40026002680E792E
:100E6000A64016430660C2681540C560C268CD79C9
:100E7000A5401543C5605B1C102BCDD3F0BDFEE72C
:100E80000168284A0A4002600021016041608160D7
:100E9000C1602549254A904202D108680F2219E015
:100EA0001432904202D10868F02213E014329042CA
:100EB00003D10868F02212010CE01432904203D1F1
:100EC0000868F022120205E01432904204D108684A
:100ED000F022120302430A6070470268144B134069
:100EE0008A681A430B6A13430A691A434B6913430E
:100EF0008A691A43CB6913434A6A1A438B6A1343BC
:100F00000360CA6842600A6882604968C1607047CD
:100F10000029016802D001220A4301E0014A0A4087
:100F200002607047FEFF000004000240080002401B
:100F30000F80FFFF10B5194A13683E248440A34375
:100F40000C684968214381401943116010BD01229A
:100F5000824012480029016802D00A4302607047AB
:100F60009143016070470122000982400C4800292A
:100F7000016802D00A4302607047914301607047E4
:100F800081B000220092054A0092009A08301018A1
:100F900000900098016001B07047000000740040AC
:100FA000047400407047FEE7130030B414001500CD
:100FB000103902D310393CC0FCD2490700D30CC011
:100FC00000D504C0890002D30280801C002900D50E
:100FD000027030BC704700000022E5E710B52549DB
:100FE000884201D1CC0C3CE08021C905884206D161
:100FF00001210120FFF7EFFE002101201DE01E4925
:10100000884206D101210220FFF7E5FE00210220DF
:1010100013E01A49884206D101211020FFF7DBFEB8
:101020000021102009E01649884209D18C0D0121C8
:101030002000FFF7D0FE00212000FFF7CCFE10BDFE
:101040001049884202D1802464020AE00E49884295
:1010500002D18024A40204E00C49884209D18024F2
:10106000E40201212000FFF7ACFE00212000FFF781
:10107000A8FE10BD002C01400004004000100040FC
:101080000020004000400140004401400048014071
:10109000406B7047806B7047CA4302827047FEE71F
:1010A00010B50E4988420AD18024E40101212000B4
:1010B000FFF787FE00212000FFF783FE10BD0849DF
:1010C000884209D18024A40201212000FFF783FE79
:1010D00000212000FFF77FFE10BD00000038014016
:1010E000004400407047FEE77047704780B5FFF747
:1010F000EEF801BD30B587B06846FFF7E3FD802507
:10110000ED0504212800FFF7C7FF204C2800FFF75A
:10111000C1FF2080208800280DD02800FFF7B8FFED
:10112000642148432188FFF777FB6080019821887C
:10113000FFF772FB00E06080606007B030BD2021E7
:10114000134802680A4008D04268114341601148C0
:1011500001884904490C01807047410D02680A402A
:101160000FD0426811434160016B0122914301633A
:10117000082141630121026B0A43026306480170A2
:101180007047000D0549086070470000D40000203A
:101190000000024014080048FA00002080E100E04E
:1011A00081B02548016801220A4302604168234A50
:1011B0000A4042600168224A0A4002600168214AEE
:1011C0000A400260204942680A404260C26A0F2316
:1011D0009A43C262026B1D4B13400363426B0123AF
:1011E0009A43426300228260009200921122184BBF
:1011F0001A60426842604268426042681140416041
:101200004168A02292030A4342600168802252048E
:101210000A43026001688901FCD5416803229143B9
:101220004160416802220A43426041680C220A4040
:10123000082AFAD101B07047001002400CB8FFF83C
:10124000FFFFF6FEFFFFFBFFFFFFC0FFACFEFFFF4F
:1012500000200240F8B4016842184468610851183F
:101260008368E40701D54C461B190C3000908A4274
:101270002BD01578521C03262E4002D11678F61C6E
:10128000521C28090F2807D110780F30521C03E098
:101290001778521C1F705B1C761EF9D10028E6D00F
:1012A0001678521CAF0803253D40032D01D1157857
:1012B000521C2D0275195D1B801CD8D02E786D1C18
:1012C0001E705B1C401ED2D0F8E70098F2BC70473D
:1012D00010B5074979441831064C7C44163404E0B3
:1012E000081D0A68891888470100A142F8D110BD7D
:1012F00008000000140000005DFFFFFF9A000000DE
:10130000760000000000002000F00BF8002801D05B
:10131000FFF7DEFF0020C046C046FEF7D1FE00F01A
:1013200002F80120704780B500F002F801BDFEE729
:101330000746384600F002F8FBE7FEE780B5C046F6
:10134000C046024A11001820ABBEFBE7260002008F
:101350000148804701480047A111000861130008B7
:10136000C046C046C046C046FFF7CEFFFEE7FEE7D8
:10137000FEE7FEE7FEE7FEE7FEE7FEE7FEE7FEE745
:10138000FEE7FEE7FEE7FEE7FEE7FEE7FEE7FEE735
:10139000FEE7FEE7FEE7F0020800040048049208BA
:1013A00004120004521404F20600286110F10B012B
:1013B000F10738E10C6170110120020102030404FD
:1013C0006002060708095C7110F002256CDC02005F
:0113D000011B
:04000005080013617B
:00000001FF
